:02000002B0004C
:1040000000400B00C2530B00000006000C0005022C
:084010000401B41400000000DB
:04401800AC500B009D
:10401C00034613F8012B002AFBD1181A01387047FC
:10402C0009480A49884208B505D0094A824202D09B
:10403C00121A00F08BFF0748074A0021121A00F0F1
:10404C0093FF014808BD00BF40E6032028530B0036
:10405C00ACE60320ACE60320F0E7032070B5074E76
:10406C00074C00F0BDFBA41BA4080025AC4200D1FA
:10407C0070BD56F8043B98470135F7E7E0520B004A
:10408C0004530B0000F013B808B500F037F8BDE886
:10409C00084000F05DBB00F035BA00F03BBA007888
:1040AC00B0FA80F04009704701230370704708B5DF
:1040BC0000F0A2FC4FF4165100F08EFC00F09CFCBA
:1040CC0000F08EFC00F098FC03681B69984700F028
:1040DC0093FC00F085FC0028F9D000F0CBFE4FF4E7
:1040EC00165100F005FD00F0C5FE03681B699847EA
:1040FC00BDE808400121052000F076BE37B500F080
:10410C007BFC03681B699847002810DD00F074FCE9
:10411C0003685B699847C1B2019100F06DFC01998D
:10412C0000F0B3FA00F0A6FE019900F095FA00F049
:10413C00A1FE03681B699847002826DD00F09AFE53
:10414C0003685B699847C4B200F056FC0A22054626
:10415C00214600F0A4FA284600F081FA302C06D152
:10416C000021052003B0BDE8304000F04EBE312CDC
:10417C0009D0582C09D100F03FFC054903B0BDE82B
:10418C00304000F078BA0121EBE703B030BD00BF3E
:10419C00C0500B0008B50120002100F02FF9064B90
:1041AC000022C3E90022A2F580329A60BDE80840E3
:1041BC00032000F01BB900BFACE6032008B5024B8E
:1041CC001B689B68019308BD6802030008B5024B8D
:1041DC001B68DB68019308BD6802030008B5024B3D
:1041EC001B689B68019308BD2C02030008B5024BA9
:1041FC001B68DB68019308BD2C02030008B5024B59
:10420C001B681B69019308BD2C02030008B5024B07
:10421C001B685B68019308BD1802030008B5024BCC
:10422C001B685B69019308BD1802030008B5024BBB
:10423C001B685B6C019308BD4802030008B5024B78
:10424C001B685B69019308BD6402030008B5024B4F
:10425C001B68DB68019308BD3C02030008B5024BE8
:10426C001B681B69019308BD3C02030008B5024B97
:10427C001B685B69019308BD3C02030008B5024B47
:10428C001B689B69019308BD3C02030008B5024BF7
:10429C001B68DB69019308BD3C02030008B5024BA7
:1042AC001B681B6A019308BD3C02030008B5024B56
:1042BC001B689B6A019308BD3C02030008B5024BC6
:1042CC001B68DB6A019308BD3C02030008B5024B76
:1042DC001B681B6C019308BD3C02030008B5024B24
:1042EC001B681B6A019308BD2802030008B5024B2A
:1042FC001B685B6A019308BD2802030008B5024BDA
:10430C001B689B6A019308BD2802030008B5024B89
:10431C001B68DB6A019308BD2802030008B5024B39
:10432C001B681B6B019308BD2802030008B5024BE8
:10433C001B685B6B019308BD2802030008B5024B98
:10434C001B681B6C019308BD2802030008B5024BC7
:10435C001B68DB69019308BD3002030008B5024BF2
:10436C001B681B6A019308BD3002030008B5024BA1
:10437C001B681B68019308BD4C02030008B5024B77
:10438C001B685B68019308BD4C02030008B5024B27
:10439C001B681B69019308BD4C02030008B5024B56
:1043AC001B685B69019308BD4C02030008B5024B06
:1043BC001B689B69019308BD4C02030008B5024BB6
:1043CC001B68DB69019308BD4C02030008B5024B66
:1043DC001B681B6A019308BD4C02030008B5024B15
:1043EC001B689B6A019308BD4C02030008B5024B85
:1043FC001B685B68019308BD2002030008B5024BE3
:10440C001B68DB6A019308BD2002030008B5034B4F
:10441C001B68D3F88830019308BD0000200203000C
:10442C0008B5034B1B68D3F89430019308BD00000A
:10443C002002030008B5024B1B685B68019308BDA2
:10444C004002030008B5024B1B689B68019308BD32
:10445C004002030008B5024B1B68DB68019308BDE2
:10446C004002030008B5024B1B681B69019308BD91
:10447C004002030008B5024B1B685B69019308BD41
:10448C004002030008B5024B1B689B69019308BDF1
:10449C004002030008B5024B1B68DB69019308BDA1
:1044AC004002030008B5024B1B681B6A019308BD50
:1044BC004002030008B5024B1B681B6B019308BD3F
:1044CC004002030008B5024B1B685B6B019308BDEF
:1044DC004002030008B5024B1B681B6C019308BD1E
:1044EC004002030008B5024B1B685B6C019308BDCE
:1044FC004002030008B5024B1B68DB6B019308BD3F
:10450C004402030008B5024B1B681B68019308BDED
:10451C001C02030008B5024B1B685B68019308BDC5
:10452C001C02030008B5024B1B681B6C019308BDF1
:10453C001C02030008B5024B1B685B6C019308BDA1
:10454C001C020300002240681146FFF7ABBF00229B
:10455C0040681146FFF7B6BF40680022FFF7AABFBC
:10456C004068002281F00101FFF794BF00234068EE
:10457C001A461946FFF786BF002340681A461946AB
:10458C00FFF778BF002240681146FFF76BBF00228F
:10459C0040681146FFF756BF406800220221FFF722
:1045AC0059BF002340681A46FFF744BF024B032251
:1045BC005A60024A1A607047B8E60320E0500B00BC
:1045CC0010B5044608462170FFF7C0FE0023636057
:1045DC00204610BD054B02221A60054B054A9A6015
:1045EC000020C3E90000FFF701BF00BFCCE60320A9
:1045FC00C0E603200000FFFF024800230360FFF722
:10460C0015BE00BFD0E60320F8B506460D468F1840
:10461C000024BD420CD0336815F8011B9B68304652
:10462C009847031E01DB1C44F3E7002C08BF1C4613
:10463C002046F8BD13B50446084659B10191FFF761
:10464C00E7FC23680199DB680246204602B0BDE80E
:10465C001040184702B010BD03689B68184738B566
:10466C000D210546FFF7F8FF0A2104462846FFF7FF
:10467C00F3FF204438BD38B50546FFF7DBFF044691
:10468C002846FFF7ECFF204438BD38B50546FFF748
:10469C00E3FF04462846FFF7E2FF204438BD30B55F
:1046AC008BB00023012A8DF8243098BF0A2209AC64
:1046BC000D46B1FBF2F101FB125303F0FF03092B82
:1046CC0094BF30333733DBB2AA4204F8013DEFD943
:1046DC002146FFF7AFFF0BB030BD0000014B024A83
:1046EC001A607047D4E6032014510B00024B1A6871
:1046FC00024B1A60704700BF40E60320D8E6032047
:10470C00014B00229A607047DCE60320014B1860D5
:10471C00704700BF44E6032008B50B4B43B100F0D3
:10472C006BF903681B699847002801DDAFF3008023
:10473C00064B43B100F09EFB03681B6998470028A9
:10474C0001DDAFF3008008BD000000000000000098
:10475C0008B5FFF7E1FFFFF761FD014B186008BDDD
:10476C0040E703200548064A064908B5121A00F02E
:10477C00EDFB054B054A1A6008BD00BF00F4032091
:10478C0004F4032094530B0000F403201E1C279AFE
:10479C0007B5002300931A466FF07701FFF740FE30
:1047AC0003B05DF804FB000007B543880A2B08D062
:1047BC00502B0BD1094B1B684BB103B05DF804EBCC
:1047CC001847FFF7E5FF03B05DF804FB00230093E7
:1047DC001A466FF07701FFF723FEF4E7F0E60320AB
:1047EC0010B512480021FFF7A5FE114B1A68114BAA
:1047FC009A42114B0CBF012200221A7001D0FFF714
:10480C00B1FFFFF703FD044600F0B6FB0B4B13B1F1
:10481C002046AFF3008000210848FFF76BFEBDE88F
:10482C00104007480021FFF7F1BD00BF19470B00EE
:10483C0000F403201E1C279AECE603200000000065
:10484C00B5470B00704710B518210446FFF725FC3F
:10485C00204610BDF0B5037D062B8DB00E4600F141
:10486C0004074FF0000412D000F1080515F8011DE3
:10487C000A223046FFF713FFAF42044419D0002C34
:10488C00F4D02E213046FFF7E7FE0444EEE72F2349
:10489C006A4639460A208DF80040FFF7CFFC68467F
:1048AC00FFF7B6FB33680246DB686946304698472B
:1048BC00044620460DB0F0BD10B5054B0446112240
:1048CC0040F8043B002100F04FFB204610BD00BF18
:1048DC003C510B000346074A10B543F8042B01F179
:1048EC00100251F8044B43F8044B9142F9D10A7869
:1048FC001A7010BD3C510B0010B59DF8084044EAED
:10490C00032343EA024242EA016104234160037536
:10491C0010BD000007B5064B0360CB7800938B7875
:10492C004A780978FFF7E8FF03B05DF804FB00BF95
:10493C003C510B00417470477047704708B500211B
:10494C00007CFFF733FD40EAE07008BD08B501219B
:10495C00007CFFF72BFD40EAE07008BD08B5007C39
:10496C00FFF71CFD20EAE07008BD08B5007CFFF7DE
:10497C000DFD20EAE07008BD13B50446007C0191E2
:10498C00FFF70CFD0028019901DC607C20B1207C34
:10499C00FFF714FD20EAE07002B010BD007CFFF7B9
:1049AC0015BD10B514210446FFF777FB204610BD4A
:1049BC0010B54FF47A73044608460021C4E901137C
:1049CC00044B23600123207463741146FFF7CEFC63
:1049DC00204610BD50510B00007C0022FFF7CEBCCE
:1049EC00007CFFF7FBBC10B514220446002100F03C
:1049FC00BBFA204610BD000010B50F4C88B003A8C0
:104A0C00FFF7F1FF2178BFF35B8F11F001010FD19C
:104A1C0020460191FFF743FB019948B103AA0748CF
:104A2C00FFF7C6FF2046FFF73FFB054800F088FA6A
:104A3C00024808B010BD00BFF4E60320F8E60320DE
:104A4C0045490B0070474174704708B5007CFFF76F
:104A5C002DFC20EAE07008BD08B5007CFFF7FEFBDA
:104A6C0020EAE07008BD08B5007CFFF707FC40EABF
:104A7C00E07008BD08B5007CFFF7F8FB40EAE07079
:104A8C0008BD007CFFF702BC37B5457C04462DB150
:104A9C00207C03B0BDE83040FFF7D8BB007C01910F
:104AAC00FFF704FC00280199F2DC284603B030BD66
:104ABC0010B514210446FFF7F0FA204610BD000093
:104ACC0010B54FF47A730446084611460022C4E927
:104ADC000123044B2360012320746374FFF7F6FB5E
:104AEC00204610BD80510B00007C0023FFF7E6BB75
:104AFC000022FFF7F9BF7047F8B5064615460C467D
:104B0C008F18BC4206D0336814F8011B9B683046E2
:104B1C009847F6E72846F8BD007C0022FFF7DEBB7D
:104B2C00007C0021FFF7E2BB007C0021FFF7E6BB15
:104B3C00007C0021FFF7EABB007C0021FFF7EEBBF5
:104B4C0010B514210446FFF7A8FA204610BD00004A
:104B5C0038B5044615464FF47A730022C4E9012394
:104B6C00094B2174084623602946FFF7E7FBBF3049
:104B7C0008D16B69DB0705D56868FFF7CBFCE868E3
:104B8C00FFF7C8FC204638BDB0510B00002240682E
:104B9C001146FFF767BC002240681146FFF782BC44
:104BAC00002240681146FFF78DBC40680022FFF7D9
:104BBC0081BC4068002281F00101FFF76BBC00232F
:104BCC0040681A461946FFF75DBC002340681A4638
:104BDC001946FFF74FBC002240681146FFF732BC64
:104BEC00406800220221FFF735BC002340681A46BA
:104BFC00FFF720BC024B04225A60024A1A6070472D
:104C0C000CE70320D8510B00002340681A46FFF72D
:104C1C0011BC406800220221FFF71CBC0022406836
:104C2C001146FFF70FBC002240681146FFF71ABC73
:104C3C00002340681A461946FFF71CBC0023406845
:104C4C001A461946FFF71EBC40680021FFF742BC0C
:104C5C0040680021FFF746BC4068002281F001014A
:104C6C00FFF718BC40680022FFF724BC0022406804
:104C7C001146FFF727BC002240681146FFF712BC13
:104C8C002DE9F04395B014460D460746FFF714FE88
:104C9C0000211C220DA8009100F066F940230C9312
:104CAC0020466B460CAA0021FFF790FA0446002818
:104CBC004BD1024601216868FFF7D4FB02218046E4
:104CCC0022466868FFF7CEFB009E81462146002EE7
:104CDC003BD0002939D17368022B03D00A2B11D099
:104CEC00F669F4E7B8F1000FFAD0716906A804313F
:104CFC0007ADFFF70FFE0FCD3C1D0FC42B682370C3
:104D0C004146EDE7B9F1000FEAD07469102201A811
:104D1C0000F02AF906238DF8143001AD04F10803D4
:104D2C001834186859682A4603C20833A34215463A
:104D3C00F7D101A906A807ADFFF7CCFD0FCD3C1D9F
:104D4C000FC42B6823704946CAE70098FFF736FA60
:104D5C00384615B0BDE8F083024B034A1A600022B6
:104D6C005A60704714E7032014520B00232813B524
:104D7C0002D9002002B010BDA0F10B03022B1AD8EF
:104D8C00174C2178BFF35B8F11F001010BD120463A
:104D9C000191FFF784F9019928B11248FFF710FC33
:104DAC002046FFF781F90F4B1878FFF7D7FA002848
:104DBC00DFD10120DEE7012809D800F09BF80021A3
:104DCC00007CFFF7B3FA80F00100C0B2D2E70938DB
:104DDC000128EED800F04EF8007CFFF75FFAF2E7FE
:104DEC001CE7032020E70320232838B504460D4692
:104DFC000AD8FF2908D0FFF7B9FF28B12946204669
:104E0C00BDE83840FFF7EAB938BD38B504460D4661
:104E1C00FFF7ECF9FF2810D0062804D84D2323FA0D
:104E2C0000F0C30709D42046FFF7A0FF28B129469C
:104E3C002046BDE83840FFF7E1B938BD70470000A7
:104E4C0038B5044614252A46002100F08DF825803B
:104E5C004025074925812846258200F06FF8044932
:104E6C006060284600F06AF8E060204638BD00BF5C
:104E7C0048520B0030B50E4D2978BFF35B8F11F003
:104E8C00010487B011D12846FFF709F968B101A8D0
:104E9C00FFF7D6FF01AA21460648FFF711FE284668
:104EAC00FFF702F9044800F04BF8024807B030BD98
:104EBC0028E703202CE70320494E0B007047000025
:104ECC0038B50A4B0360012304464361084920208E
:104EDC0000F034F8202560600549A560284600F0F4
:104EEC002DF8C4E90305204638BD00BF18000100A9
:104EFC0048520B0030B50E4D2978BFF35B8F11F083
:104F0C00010487B011D12846FFF7C9F868B168468B
:104F1C00FFF7D6FF6A4621460648FFF719FE2846DA
:104F2C00FFF7C2F8044800F00BF8024807B030BD98
:104F3C0044E7032048E70320C94E0B00FFF7ABB84A
:104F4C00002301461A46184600F044B80A44914220
:104F5C0000F1FF3300D1704710B511F8014B03F885
:104F6C00014F9142F9D110BD02440346934200D146
:104F7C00704703F8011BF9E738B5104B1D68AB6B94
:104F8C000446B3B91820FFF7BDFA0246A86320B94E
:104F9C000B4B0C484221FFF7C5FA0B490B4BC0E9F0
:104FAC0000130B4B83600B23838100210120C2E98A
:104FBC000401AB6B00221C615A6138BD44E603202E
:104FCC0049520B0060520B000E33CDAB34126DE620
:104FDC00ECDE05002DE9F843DFF8B8800646D8F87A
:104FEC0000001F460D46914600F056F8254B1C68F4
:104FFC0034B9254C1C60254B13B11B68C4F88830A0
:10500C0063681F2B07DDD8F8000000F047F84FF05D
:10501C00FF30BDE8F8834EB3D4F8880088B91C4B38
:10502C0023B9D8F8000000F038F8F0E74FF484709A
:10503C00FFF768FA0028F4D00023C0E94033C4F825
:10504C008800636840F8239001229A4000EB8301AA
:10505C00D0F800311343C0F80031022EC1F8807033
:10506C0002BFD0F804311343C0F804316368D8F898
:10507C0000005A1C0233626044F8235000F00EF812
:10508C000020C6E7E8E703205CE7032000000000EF
:10509C0011450B00A8E603207047704770470000CD
:1050AC002D400B0069400B0091400B0095400B000C
:1050BC000000000057726F6E6720627574746F6E1B
:1050CC002C2064756D6D792E00000000000000002E
:1050DC0000000000AF450B00A5450B009B450B00E5
:1050EC0091450B0085450B0079450B00554C0B0089
:1050FC005D4C0B006D450B0065450B005B450B00D3
:10510C0051450B008D4C0B006170700025592D25FD
:10511C006D2D25645425483A254D3A2553257A00A2
:10512C0061736374696D650000000000000000008D
:10513C0061480B0051480B0053480B000000000065
:10514C000000000047490B00AF490B0085490B00DC
:10515C0015460B0077490B0049490B0059490B00C8
:10516C00A9490B0069490B0041490B0000000000E4
:10517C0000000000514A0B00BD4A0B00954A0B0081
:10518C0015460B00654A0B00814A0B00734A0B0055
:10519C008F4A0B00534A0B00574A0B0000000000CB
:1051AC0000000000034B0B004D4B0B00254B0B007C
:1051BC00054B0B002D4B0B00354B0B003D4B0B00E7
:1051CC00454B0B000000000000000000F74B0B00EB
:1051DC00ED4B0B00E34B0B00994B0B00D74B0B002B
:1051EC00CB4B0B00554C0B005D4C0B00BF4B0B001D
:1051FC00B74B0B00AD4B0B00A34B0B008D4C0B00B6
:10520C000000000000000000154C0B001F4C0B00B0
:10521C00294C0B00334C0B003D4C0B00494C0B0044
:10522C00554C0B005D4C0B00654C0B00714C0B008E
:10523C00794C0B00834C0B008D4C0B0000524545F8
:10524C004E54206D616C6C6F632073756363656580
:10525C00646564002F6D6E742F776F726B73706161
:10526C0063652F776F726B73706163652F47434370
:10527C002D31302D706970656C696E652F6A656EA5
:10528C006B696E732D4743432D31302D70697065FA
:10529C006C696E652D34385F3230323031313234D6
:1052AC005F313630363138303634312F7372632FEC
:1052BC006E65776C69622F6E65776C69622F6C69AD
:1052CC0062632F7374646C69622F72616E642E63F7
:1052DC0000000000A1410B00B9450B00E1450B009B
:1052EC0005460B00E9460B00F9460B000D470B0079
:0852FC00014C0B00654D0B0095
:10530400040000001400000003000000474E550094
:105314000DF761BB47BF237383CC4799B813126C55
:045324008B6A9A6B8B
:105328002C510B0048E6032000000000000000009C
:105338000000000000000000000000000000000065
:105348000000000000000000000000000000000055
:105358000000000000000000000000000000000045
:105368000000000000000000000000000000000035
:105378000000000000000000000000000000000025
:0C5388000000000000000000ECE7032023
:045394000000000015
:10539E0000000102030405060708090A0B0C0D0E96
:1053AE000F101112131415161718191A1B1C1D1E87
:0453BE001F20280084
:0453C20078563412D3
:04000003B000401CED
:00000001FF
